{
  "contractName": "Weth",
  "abi": [
    {
      "inputs": [],
      "stateMutability": "nonpayable",
      "type": "constructor"
    },
    {
      "anonymous": false,
      "inputs": [
        {
          "indexed": true,
          "internalType": "address",
          "name": "owner",
          "type": "address"
        },
        {
          "indexed": true,
          "internalType": "address",
          "name": "spender",
          "type": "address"
        },
        {
          "indexed": false,
          "internalType": "uint256",
          "name": "value",
          "type": "uint256"
        }
      ],
      "name": "Approval",
      "type": "event"
    },
    {
      "anonymous": false,
      "inputs": [
        {
          "indexed": true,
          "internalType": "address",
          "name": "from",
          "type": "address"
        },
        {
          "indexed": true,
          "internalType": "address",
          "name": "to",
          "type": "address"
        },
        {
          "indexed": false,
          "internalType": "uint256",
          "name": "value",
          "type": "uint256"
        }
      ],
      "name": "Transfer",
      "type": "event"
    },
    {
      "inputs": [
        {
          "internalType": "address",
          "name": "owner",
          "type": "address"
        },
        {
          "internalType": "address",
          "name": "spender",
          "type": "address"
        }
      ],
      "name": "allowance",
      "outputs": [
        {
          "internalType": "uint256",
          "name": "",
          "type": "uint256"
        }
      ],
      "stateMutability": "view",
      "type": "function"
    },
    {
      "inputs": [
        {
          "internalType": "address",
          "name": "spender",
          "type": "address"
        },
        {
          "internalType": "uint256",
          "name": "amount",
          "type": "uint256"
        }
      ],
      "name": "approve",
      "outputs": [
        {
          "internalType": "bool",
          "name": "",
          "type": "bool"
        }
      ],
      "stateMutability": "nonpayable",
      "type": "function"
    },
    {
      "inputs": [
        {
          "internalType": "address",
          "name": "account",
          "type": "address"
        }
      ],
      "name": "balanceOf",
      "outputs": [
        {
          "internalType": "uint256",
          "name": "",
          "type": "uint256"
        }
      ],
      "stateMutability": "view",
      "type": "function"
    },
    {
      "inputs": [],
      "name": "decimals",
      "outputs": [
        {
          "internalType": "uint8",
          "name": "",
          "type": "uint8"
        }
      ],
      "stateMutability": "view",
      "type": "function"
    },
    {
      "inputs": [
        {
          "internalType": "address",
          "name": "spender",
          "type": "address"
        },
        {
          "internalType": "uint256",
          "name": "subtractedValue",
          "type": "uint256"
        }
      ],
      "name": "decreaseAllowance",
      "outputs": [
        {
          "internalType": "bool",
          "name": "",
          "type": "bool"
        }
      ],
      "stateMutability": "nonpayable",
      "type": "function"
    },
    {
      "inputs": [
        {
          "internalType": "address",
          "name": "spender",
          "type": "address"
        },
        {
          "internalType": "uint256",
          "name": "addedValue",
          "type": "uint256"
        }
      ],
      "name": "increaseAllowance",
      "outputs": [
        {
          "internalType": "bool",
          "name": "",
          "type": "bool"
        }
      ],
      "stateMutability": "nonpayable",
      "type": "function"
    },
    {
      "inputs": [],
      "name": "name",
      "outputs": [
        {
          "internalType": "string",
          "name": "",
          "type": "string"
        }
      ],
      "stateMutability": "view",
      "type": "function"
    },
    {
      "inputs": [],
      "name": "symbol",
      "outputs": [
        {
          "internalType": "string",
          "name": "",
          "type": "string"
        }
      ],
      "stateMutability": "view",
      "type": "function"
    },
    {
      "inputs": [],
      "name": "totalSupply",
      "outputs": [
        {
          "internalType": "uint256",
          "name": "",
          "type": "uint256"
        }
      ],
      "stateMutability": "view",
      "type": "function"
    },
    {
      "inputs": [
        {
          "internalType": "address",
          "name": "recipient",
          "type": "address"
        },
        {
          "internalType": "uint256",
          "name": "amount",
          "type": "uint256"
        }
      ],
      "name": "transfer",
      "outputs": [
        {
          "internalType": "bool",
          "name": "",
          "type": "bool"
        }
      ],
      "stateMutability": "nonpayable",
      "type": "function"
    },
    {
      "inputs": [
        {
          "internalType": "address",
          "name": "sender",
          "type": "address"
        },
        {
          "internalType": "address",
          "name": "recipient",
          "type": "address"
        },
        {
          "internalType": "uint256",
          "name": "amount",
          "type": "uint256"
        }
      ],
      "name": "transferFrom",
      "outputs": [
        {
          "internalType": "bool",
          "name": "",
          "type": "bool"
        }
      ],
      "stateMutability": "nonpayable",
      "type": "function"
    },
    {
      "inputs": [],
      "name": "deposit",
      "outputs": [],
      "stateMutability": "payable",
      "type": "function"
    },
    {
      "inputs": [
        {
          "internalType": "uint256",
          "name": "amount",
          "type": "uint256"
        }
      ],
      "name": "withdrwal",
      "outputs": [],
      "stateMutability": "payable",
      "type": "function"
    },
    {
      "inputs": [],
      "name": "Ethbalance",
      "outputs": [
        {
          "internalType": "uint256",
          "name": "",
          "type": "uint256"
        }
      ],
      "stateMutability": "view",
      "type": "function"
    }
  ],
  "bytecode": "0x60806040523480156200001157600080fd5b506040518060400160405280600d81526020017f57726170706564204574686572000000000000000000000000000000000000008152506040518060400160405280600481526020017f5745544800000000000000000000000000000000000000000000000000000000815250816003908051906020019062000096929190620000b8565b508060049080519060200190620000af929190620000b8565b505050620001cd565b828054620000c69062000168565b90600052602060002090601f016020900481019282620000ea576000855562000136565b82601f106200010557805160ff191683800117855562000136565b8280016001018555821562000136579182015b828111156200013557825182559160200191906001019062000118565b5b50905062000145919062000149565b5090565b5b80821115620001645760008160009055506001016200014a565b5090565b600060028204905060018216806200018157607f821691505b602082108114156200019857620001976200019e565b5b50919050565b7f4e487b7100000000000000000000000000000000000000000000000000000000600052602260045260246000fd5b611a6c80620001dd6000396000f3fe6080604052600436106100dd5760003560e01c806395d89b411161007f578063d0e30db011610059578063d0e30db0146102fc578063dd62ed3e14610306578063e766549b14610343578063f9c283411461035f576100dd565b806395d89b4114610257578063a457c2d714610282578063a9059cbb146102bf576100dd565b806323b872dd116100bb57806323b872dd14610175578063313ce567146101b257806339509351146101dd57806370a082311461021a576100dd565b806306fdde03146100e2578063095ea7b31461010d57806318160ddd1461014a575b600080fd5b3480156100ee57600080fd5b506100f761038a565b6040516101049190611681565b60405180910390f35b34801561011957600080fd5b50610134600480360381019061012f9190611185565b61041c565b6040516101419190611666565b60405180910390f35b34801561015657600080fd5b5061015f61043a565b60405161016c9190611803565b60405180910390f35b34801561018157600080fd5b5061019c60048036038101906101979190611136565b610444565b6040516101a99190611666565b60405180910390f35b3480156101be57600080fd5b506101c7610545565b6040516101d4919061181e565b60405180910390f35b3480156101e957600080fd5b5061020460048036038101906101ff9190611185565b61054e565b6040516102119190611666565b60405180910390f35b34801561022657600080fd5b50610241600480360381019061023c91906110d1565b6105fa565b60405161024e9190611803565b60405180910390f35b34801561026357600080fd5b5061026c610642565b6040516102799190611681565b60405180910390f35b34801561028e57600080fd5b506102a960048036038101906102a49190611185565b6106d4565b6040516102b69190611666565b60405180910390f35b3480156102cb57600080fd5b506102e660048036038101906102e19190611185565b6107c8565b6040516102f39190611666565b60405180910390f35b6103046107e6565b005b34801561031257600080fd5b5061032d600480360381019061032891906110fa565b6107f2565b60405161033a9190611803565b60405180910390f35b61035d600480360381019061035891906111c1565b610879565b005b34801561036b57600080fd5b50610374610918565b6040516103819190611803565b60405180910390f35b60606003805461039990611967565b80601f01602080910402602001604051908101604052809291908181526020018280546103c590611967565b80156104125780601f106103e757610100808354040283529160200191610412565b820191906000526020600020905b8154815290600101906020018083116103f557829003601f168201915b5050505050905090565b6000610430610429610928565b8484610930565b6001905092915050565b6000600254905090565b6000610451848484610afb565b6000600160008673ffffffffffffffffffffffffffffffffffffffff1673ffffffffffffffffffffffffffffffffffffffff168152602001908152602001600020600061049c610928565b73ffffffffffffffffffffffffffffffffffffffff1673ffffffffffffffffffffffffffffffffffffffff1681526020019081526020016000205490508281101561051c576040517f08c379a000000000000000000000000000000000000000000000000000000000815260040161051390611743565b60405180910390fd5b61053985610528610928565b858461053491906118ab565b610930565b60019150509392505050565b60006012905090565b60006105f061055b610928565b848460016000610569610928565b73ffffffffffffffffffffffffffffffffffffffff1673ffffffffffffffffffffffffffffffffffffffff16815260200190815260200160002060008873ffffffffffffffffffffffffffffffffffffffff1673ffffffffffffffffffffffffffffffffffffffff168152602001908152602001600020546105eb9190611855565b610930565b6001905092915050565b60008060008373ffffffffffffffffffffffffffffffffffffffff1673ffffffffffffffffffffffffffffffffffffffff168152602001908152602001600020549050919050565b60606004805461065190611967565b80601f016020809104026020016040519081016040528092919081815260200182805461067d90611967565b80156106ca5780601f1061069f576101008083540402835291602001916106ca565b820191906000526020600020905b8154815290600101906020018083116106ad57829003601f168201915b5050505050905090565b600080600160006106e3610928565b73ffffffffffffffffffffffffffffffffffffffff1673ffffffffffffffffffffffffffffffffffffffff16815260200190815260200160002060008573ffffffffffffffffffffffffffffffffffffffff1673ffffffffffffffffffffffffffffffffffffffff168152602001908152602001600020549050828110156107a0576040517f08c379a0000000000000000000000000000000000000000000000000000000008152600401610797906117c3565b60405180910390fd5b6107bd6107ab610928565b8585846107b891906118ab565b610930565b600191505092915050565b60006107dc6107d5610928565b8484610afb565b6001905092915050565b6107f03334610d7a565b565b6000600160008473ffffffffffffffffffffffffffffffffffffffff1673ffffffffffffffffffffffffffffffffffffffff16815260200190815260200160002060008373ffffffffffffffffffffffffffffffffffffffff1673ffffffffffffffffffffffffffffffffffffffff16815260200190815260200160002054905092915050565b80610883336105fa565b10156108c4576040517f08c379a00000000000000000000000000000000000000000000000000000000081526004016108bb90611703565b60405180910390fd5b6108ce3382610ece565b3373ffffffffffffffffffffffffffffffffffffffff166108fc829081150290604051600060405180830381858888f19350505050158015610914573d6000803e3d6000fd5b5050565b6000610923306105fa565b905090565b600033905090565b600073ffffffffffffffffffffffffffffffffffffffff168373ffffffffffffffffffffffffffffffffffffffff1614156109a0576040517f08c379a0000000000000000000000000000000000000000000000000000000008152600401610997906117a3565b60405180910390fd5b600073ffffffffffffffffffffffffffffffffffffffff168273ffffffffffffffffffffffffffffffffffffffff161415610a10576040517f08c379a0000000000000000000000000000000000000000000000000000000008152600401610a07906116e3565b60405180910390fd5b80600160008573ffffffffffffffffffffffffffffffffffffffff1673ffffffffffffffffffffffffffffffffffffffff16815260200190815260200160002060008473ffffffffffffffffffffffffffffffffffffffff1673ffffffffffffffffffffffffffffffffffffffff168152602001908152602001600020819055508173ffffffffffffffffffffffffffffffffffffffff168373ffffffffffffffffffffffffffffffffffffffff167f8c5be1e5ebec7d5bd14f71427d1e84f3dd0314c0f7b2291e5b200ac8c7c3b92583604051610aee9190611803565b60405180910390a3505050565b600073ffffffffffffffffffffffffffffffffffffffff168373ffffffffffffffffffffffffffffffffffffffff161415610b6b576040517f08c379a0000000000000000000000000000000000000000000000000000000008152600401610b6290611783565b60405180910390fd5b600073ffffffffffffffffffffffffffffffffffffffff168273ffffffffffffffffffffffffffffffffffffffff161415610bdb576040517f08c379a0000000000000000000000000000000000000000000000000000000008152600401610bd2906116a3565b60405180910390fd5b610be68383836110a2565b60008060008573ffffffffffffffffffffffffffffffffffffffff1673ffffffffffffffffffffffffffffffffffffffff16815260200190815260200160002054905081811015610c6c576040517f08c379a0000000000000000000000000000000000000000000000000000000008152600401610c6390611723565b60405180910390fd5b8181610c7891906118ab565b6000808673ffffffffffffffffffffffffffffffffffffffff1673ffffffffffffffffffffffffffffffffffffffff16815260200190815260200160002081905550816000808573ffffffffffffffffffffffffffffffffffffffff1673ffffffffffffffffffffffffffffffffffffffff1681526020019081526020016000206000828254610d089190611855565b925050819055508273ffffffffffffffffffffffffffffffffffffffff168473ffffffffffffffffffffffffffffffffffffffff167fddf252ad1be2c89b69c2b068fc378daa952ba7f163c4a11628f55a4df523b3ef84604051610d6c9190611803565b60405180910390a350505050565b600073ffffffffffffffffffffffffffffffffffffffff168273ffffffffffffffffffffffffffffffffffffffff161415610dea576040517f08c379a0000000000000000000000000000000000000000000000000000000008152600401610de1906117e3565b60405180910390fd5b610df6600083836110a2565b8060026000828254610e089190611855565b92505081905550806000808473ffffffffffffffffffffffffffffffffffffffff1673ffffffffffffffffffffffffffffffffffffffff1681526020019081526020016000206000828254610e5d9190611855565b925050819055508173ffffffffffffffffffffffffffffffffffffffff16600073ffffffffffffffffffffffffffffffffffffffff167fddf252ad1be2c89b69c2b068fc378daa952ba7f163c4a11628f55a4df523b3ef83604051610ec29190611803565b60405180910390a35050565b600073ffffffffffffffffffffffffffffffffffffffff168273ffffffffffffffffffffffffffffffffffffffff161415610f3e576040517f08c379a0000000000000000000000000000000000000000000000000000000008152600401610f3590611763565b60405180910390fd5b610f4a826000836110a2565b60008060008473ffffffffffffffffffffffffffffffffffffffff1673ffffffffffffffffffffffffffffffffffffffff16815260200190815260200160002054905081811015610fd0576040517f08c379a0000000000000000000000000000000000000000000000000000000008152600401610fc7906116c3565b60405180910390fd5b8181610fdc91906118ab565b6000808573ffffffffffffffffffffffffffffffffffffffff1673ffffffffffffffffffffffffffffffffffffffff16815260200190815260200160002081905550816002600082825461103091906118ab565b92505081905550600073ffffffffffffffffffffffffffffffffffffffff168373ffffffffffffffffffffffffffffffffffffffff167fddf252ad1be2c89b69c2b068fc378daa952ba7f163c4a11628f55a4df523b3ef846040516110959190611803565b60405180910390a3505050565b505050565b6000813590506110b681611a08565b92915050565b6000813590506110cb81611a1f565b92915050565b6000602082840312156110e357600080fd5b60006110f1848285016110a7565b91505092915050565b6000806040838503121561110d57600080fd5b600061111b858286016110a7565b925050602061112c858286016110a7565b9150509250929050565b60008060006060848603121561114b57600080fd5b6000611159868287016110a7565b935050602061116a868287016110a7565b925050604061117b868287016110bc565b9150509250925092565b6000806040838503121561119857600080fd5b60006111a6858286016110a7565b92505060206111b7858286016110bc565b9150509250929050565b6000602082840312156111d357600080fd5b60006111e1848285016110bc565b91505092915050565b6111f3816118f1565b82525050565b600061120482611839565b61120e8185611844565b935061121e818560208601611934565b611227816119f7565b840191505092915050565b600061123f602383611844565b91507f45524332303a207472616e7366657220746f20746865207a65726f206164647260008301527f65737300000000000000000000000000000000000000000000000000000000006020830152604082019050919050565b60006112a5602283611844565b91507f45524332303a206275726e20616d6f756e7420657863656564732062616c616e60008301527f63650000000000000000000000000000000000000000000000000000000000006020830152604082019050919050565b600061130b602283611844565b91507f45524332303a20617070726f766520746f20746865207a65726f20616464726560008301527f73730000000000000000000000000000000000000000000000000000000000006020830152604082019050919050565b6000611371600f83611844565b91507f62616c616e636520746f6f206c6f7700000000000000000000000000000000006000830152602082019050919050565b60006113b1602683611844565b91507f45524332303a207472616e7366657220616d6f756e742065786365656473206260008301527f616c616e636500000000000000000000000000000000000000000000000000006020830152604082019050919050565b6000611417602883611844565b91507f45524332303a207472616e7366657220616d6f756e742065786365656473206160008301527f6c6c6f77616e63650000000000000000000000000000000000000000000000006020830152604082019050919050565b600061147d602183611844565b91507f45524332303a206275726e2066726f6d20746865207a65726f2061646472657360008301527f73000000000000000000000000000000000000000000000000000000000000006020830152604082019050919050565b60006114e3602583611844565b91507f45524332303a207472616e736665722066726f6d20746865207a65726f20616460008301527f64726573730000000000000000000000000000000000000000000000000000006020830152604082019050919050565b6000611549602483611844565b91507f45524332303a20617070726f76652066726f6d20746865207a65726f2061646460008301527f72657373000000000000000000000000000000000000000000000000000000006020830152604082019050919050565b60006115af602583611844565b91507f45524332303a2064656372656173656420616c6c6f77616e63652062656c6f7760008301527f207a65726f0000000000000000000000000000000000000000000000000000006020830152604082019050919050565b6000611615601f83611844565b91507f45524332303a206d696e7420746f20746865207a65726f2061646472657373006000830152602082019050919050565b6116518161191d565b82525050565b61166081611927565b82525050565b600060208201905061167b60008301846111ea565b92915050565b6000602082019050818103600083015261169b81846111f9565b905092915050565b600060208201905081810360008301526116bc81611232565b9050919050565b600060208201905081810360008301526116dc81611298565b9050919050565b600060208201905081810360008301526116fc816112fe565b9050919050565b6000602082019050818103600083015261171c81611364565b9050919050565b6000602082019050818103600083015261173c816113a4565b9050919050565b6000602082019050818103600083015261175c8161140a565b9050919050565b6000602082019050818103600083015261177c81611470565b9050919050565b6000602082019050818103600083015261179c816114d6565b9050919050565b600060208201905081810360008301526117bc8161153c565b9050919050565b600060208201905081810360008301526117dc816115a2565b9050919050565b600060208201905081810360008301526117fc81611608565b9050919050565b60006020820190506118186000830184611648565b92915050565b60006020820190506118336000830184611657565b92915050565b600081519050919050565b600082825260208201905092915050565b60006118608261191d565b915061186b8361191d565b9250827fffffffffffffffffffffffffffffffffffffffffffffffffffffffffffffffff038211156118a05761189f611999565b5b828201905092915050565b60006118b68261191d565b91506118c18361191d565b9250828210156118d4576118d3611999565b5b828203905092915050565b60006118ea826118fd565b9050919050565b60008115159050919050565b600073ffffffffffffffffffffffffffffffffffffffff82169050919050565b6000819050919050565b600060ff82169050919050565b60005b83811015611952578082015181840152602081019050611937565b83811115611961576000848401525b50505050565b6000600282049050600182168061197f57607f821691505b60208210811415611993576119926119c8565b5b50919050565b7f4e487b7100000000000000000000000000000000000000000000000000000000600052601160045260246000fd5b7f4e487b7100000000000000000000000000000000000000000000000000000000600052602260045260246000fd5b6000601f19601f8301169050919050565b611a11816118df565b8114611a1c57600080fd5b50565b611a288161191d565b8114611a3357600080fd5b5056fea264697066735822122098ca706559d7fdcc8fdc55dce0d58c00141f9c97ed44315349ee4bed94c5a5be64736f6c63430008000033",
  "immutableReferences": {},
  "source": "// SPDX-License-Identifier: MIT\r\npragma solidity ^0.8.0;\r\n\r\n\r\nimport '@OpenZeppelin/contracts/token/ERC20/ERC20.sol';\r\n\r\ncontract Weth is ERC20 {\r\n    \r\n    constructor() ERC20('Wrapped Ether', \"WETH\") {}\r\n\r\n    function deposit() external payable {\r\n        _mint(msg.sender, msg.value);\r\n    }\r\n\r\n    function withdrwal(uint amount) external payable {\r\n        require(balanceOf(msg.sender) >= amount, \"balance too low\");\r\n        _burn(msg.sender, amount);\r\n        payable(msg.sender).transfer(amount);\r\n    }\r\n\r\n    function Ethbalance() external view returns(uint)  {\r\n        return balanceOf(address(this));\r\n    }\r\n}",
  "sourcePath": "C:/Users/admin/Documents/GitHub/My-DeFi-Experiment/Creating Weth Trial2/contracts/Weth.sol",
  "compiler": {
    "name": "solc",
    "version": "0.8.0+commit.c7dfd78e.Emscripten.clang"
  },
  "schemaVersion": "3.3.3",
  "updatedAt": "2021-04-01T03:48:24.042Z",
  "devdoc": {
    "kind": "dev",
    "methods": {
      "allowance(address,address)": {
        "details": "See {IERC20-allowance}."
      },
      "approve(address,uint256)": {
        "details": "See {IERC20-approve}. Requirements: - `spender` cannot be the zero address."
      },
      "balanceOf(address)": {
        "details": "See {IERC20-balanceOf}."
      },
      "decimals()": {
        "details": "Returns the number of decimals used to get its user representation. For example, if `decimals` equals `2`, a balance of `505` tokens should be displayed to a user as `5,05` (`505 / 10 ** 2`). Tokens usually opt for a value of 18, imitating the relationship between Ether and Wei. This is the value {ERC20} uses, unless this function is overloaded; NOTE: This information is only used for _display_ purposes: it in no way affects any of the arithmetic of the contract, including {IERC20-balanceOf} and {IERC20-transfer}."
      },
      "decreaseAllowance(address,uint256)": {
        "details": "Atomically decreases the allowance granted to `spender` by the caller. This is an alternative to {approve} that can be used as a mitigation for problems described in {IERC20-approve}. Emits an {Approval} event indicating the updated allowance. Requirements: - `spender` cannot be the zero address. - `spender` must have allowance for the caller of at least `subtractedValue`."
      },
      "increaseAllowance(address,uint256)": {
        "details": "Atomically increases the allowance granted to `spender` by the caller. This is an alternative to {approve} that can be used as a mitigation for problems described in {IERC20-approve}. Emits an {Approval} event indicating the updated allowance. Requirements: - `spender` cannot be the zero address."
      },
      "name()": {
        "details": "Returns the name of the token."
      },
      "symbol()": {
        "details": "Returns the symbol of the token, usually a shorter version of the name."
      },
      "totalSupply()": {
        "details": "See {IERC20-totalSupply}."
      },
      "transfer(address,uint256)": {
        "details": "See {IERC20-transfer}. Requirements: - `recipient` cannot be the zero address. - the caller must have a balance of at least `amount`."
      },
      "transferFrom(address,address,uint256)": {
        "details": "See {IERC20-transferFrom}. Emits an {Approval} event indicating the updated allowance. This is not required by the EIP. See the note at the beginning of {ERC20}. Requirements: - `sender` and `recipient` cannot be the zero address. - `sender` must have a balance of at least `amount`. - the caller must have allowance for ``sender``'s tokens of at least `amount`."
      }
    },
    "version": 1
  },
  "userdoc": {
    "kind": "user",
    "methods": {},
    "version": 1
  }
}